:020000040800F2
:10000000C008002089010008910100089301000840
:100010009501000897010008990100080000000000
:100020000000000000000000000000009B0100082C
:100030009D010008000000009F010008AD0A0008B3
:10004000A3010008A3010008A3010008A301000800
:10005000A3010008A3010008A3010008A3010008F0
:10006000A3010008A3010008A3010008A3010008E0
:10007000A3010008A3010008A3010008A3010008D0
:10008000A3010008A3010008A3010008A3010008C0
:10009000A3010008A3010008A3010008A3010008B0
:1000A000A3010008A3010008A3010008A3010008A0
:1000B000A3010008A3010008A3010008A301000890
:1000C000A3010008A3010008A3010008A301000880
:1000D000A3010008590B0008890B00088B0B0008CE
:1000E000A3010008A3010008A301000800F002F822
:1000F00000F03AF80AA090E8000C82448344AAF188
:100100000107DA4501D100F02FF8AFF2090EBAE885
:100110000F0013F0010F18BFFB1A43F0010318473B
:10012000940A0000B40A0000103A24BF78C878C1CD
:10013000FAD8520724BF30C830C144BF04680C60ED
:10014000704700000023002400250026103A28BF35
:1001500078C1FBD8520728BF30C148BF0B60704739
:100160001FB51FBD10B510BD00F031F81146FFF7E7
:10017000F7FF00F00BFD00F04FF803B4FFF7F2FFBC
:1001800003BC00F057F800000948804709480047C1
:10019000FEE7FEE7FEE7FEE7FEE7FEE7FEE7FEE737
:1001A000FEE7FEE704480549054A064B7047000094
:1001B000D90A0008ED000008C0020020C008002095
:1001C000C0040020C0040020704770477047754687
:1001D00000F02CF8AE4605006946534620F00700B3
:1001E000854618B020B5FFF7DDFFBDE820404FF091
:1001F00000064FF000074FF000084FF0000B21F011
:100200000701AC46ACE8C009ACE8C009ACE8C009DD
:10021000ACE8C0098D46704710B50446AFF30080C6
:100220002046BDE81040FFF7A8BF00000048704717
:100230005C02002001491820ABBEFEE72600020048
:100240007047000000F0EEF800201B4908701B49C1
:10025000087030E000F0CEFA00B300F09DFA00F034
:10026000A7FA1749144A127888540846124909789F
:10027000405C0A281AD11148007830B900F0BAF869
:1002800000F043F801200D49087000F0E7FA0D492D
:1002900008700846007810B100F04EFC0BE000201A
:1002A0000549087008A000F0CDFA04E00248007883
:1002B000401C01490870CDE71C0000201D000020F3
:1002C000560000201E0000206F6B000008B501469C
:1002D000302906DB392904DCA1F13000C0B20090DE
:1002E00010E0412906DB462904DCA1F13700C0B249
:1002F000009007E0612905DB662903DCA1F15700C6
:10030000C0B200909DF8000008BD00B5002304E0D5
:10031000184600F005F8581CC3B2402BF8DB00BDAE
:1003200000BF1749C96801F001010029F9D114493A
:10033000096941F00201124A1161124901EB802161
:1003400051611146096941F04001116100BF0C493A
:10035000C96801F001010029F9D100BF0849C96845
:10036000C1F340110029F9D00549C96841F02001C5
:10037000034AD1601146096921F0020111617047F9
:10038000002002400010000830B50B4600BF18499D
:10039000C96801F001010029F9D11549096941F045
:1003A0000101134C2161002119E033F81140048050
:1003B00000BF0F4CE46804F00104002CF9D100BF29
:1003C0000B4CE468C4F34014002CF9D0084CE468EA
:1003D00044F02004064DEC604C1CE1B2801C9142BC
:1003E000E3DB0349096921F00101014C216130BDC2
:1003F0000020024000BF0848C06800F0010000284B
:10040000F9D105480069C0F3C01020B10348024982
:100410004860034848607047002002402301674558
:10042000AB89EFCD10B500F0BEF900F08DF90249AF
:10043000024800F0A3F910BD390B0008404B4C00F6
:1004400010B5044624B1012C2CD0022C2CD12AE06A
:100450000A220921002000F02BF811220A21002095
:1004600000F026F840F24130104908600020091DD4
:100470000860091D0860091D0860091D08600B4817
:10048000001D006840F008000849091D0860084682
:10049000006840F0040008600846006840F400501E
:1004A000086001E000E000BF00BF10BD0838014057
:1004B00070B5034623B1012B59D0022B56D1AEE0C3
:1004C000102A01D0112A0ED17E48046801208840EC
:1004D00084437C480460046802F0010088400443BF
:1004E000784804605210CD1701EB5575ED10CE170A
:1004F00001EB167636110EB9012600E000263540D4
:100500000DB30846CC1701EB5474E410A1EBC404FE
:10051000A5000F24AC406B4D083D2D68A543694CE8
:10052000083C2560CC1701EB5474E410A1EBC40423
:10053000A40002FA04F4634D083D2D682C43614D7C
:10054000083D2C6012E05F480C3800688D000F24D5
:10055000AC40A0435B4C0C3C2060204600688C0003
:1005600002FA04F42043574C0C3C2060A8E0102A07
:1005700001D0112A0FD15448006801248C40A043B7
:10058000514C20602046006802F001048C4020435A
:100590004D4C20605210CD1701EB5575ED10CE1764
:1005A00001EB167636110EB9012600E00026354023
:1005B0000DB30846CC1701EB5474E410A1EBC4044E
:1005C000A5000F24AC40404D083D2D68A5433E4C8E
:1005D000083C2560CC1701EB5474E410A1EBC40473
:1005E000A40002FA04F4384D083D2D682C43364D22
:1005F000083D2C6012E034480C3800688D000F2450
:10060000AC40A043304C0C3C2060204600688C007D
:1006100002FA04F420432C4C0C3C206050E0102AD9
:1006200001D0112A0FD12948C06801248C40A04371
:10063000264CE0602046C06802F001048C40204354
:10064000224CE0605210CD1701EB5575ED10CE171E
:1006500001EB167636110EB9012600E00026354072
:10066000EDB10846CC1701EB5474E410A1EBC404BF
:10067000A5000F24AC40154D6D68A543134C656073
:10068000CC1701EB5474E410A1EBC404A40002FAEB
:1006900004F40E4D6D682C430C4D6C600FE00B485C
:1006A00000688D000F24AC40A043084C2060204619
:1006B00000688C0002FA04F42043044C206000BF60
:1006C00000BF70BD0C0801400C0C0140001001403F
:1006D0001F291EDC20B101280AD0022818D10FE002
:1006E0000C4A526901238B401A430A4B5A610FE0AE
:1006F000084AD36901228A401343064AD36107E0BE
:10070000044A926901238B401A43024B9A6100BF4D
:1007100000BF70470010024081200649086000BFFA
:100720000448006800F002000028F9D000200149C8
:100730004860704700100240014802490860704755
:100740000010000808ED00E000204FF0E0210861F3
:1007500070470000074A11600122074B1A700022FF
:100760004FF0E0231A619A6120F07F425A61032220
:100770001A617047000000200400002030B50446D4
:100780000D4629462046FFF7E5FF00200149087085
:1007900030BD00000400002000204FF0E02108617F
:1007A00048618861704710B50020FFF749FE10BD11
:1007B0000D4800780D4908700846007880B1002087
:1007C00005E0094A411C515C1154411CC8B208495A
:1007D00009788842F5DB06480078401E0449087015
:1007E0000248007870470000240000200D0000201F
:1007F0000C0000200948006800F0200060B10749A3
:10080000091D0968CAB206490878411C044B1970D1
:1008100004490A54012070470020FCE700380140D9
:100820000C0000202400002000BF0549096801F0E9
:1008300080010029F9D00249091D086070470000B5
:100840000038014000B5024603E012F8010BFFF743
:10085000EBFF10780028F8D100BD000070B55248B9
:10086000007A302806D031286ED0342871D035284F
:1008700069D194E04D4800686FF30F004B49086060
:1008800000204B49088000220FE0D11C464B585CE9
:10089000FFF71CFDC2F10301890088404449098823
:1008A000084343490880501CC2B2042AEDD33F4894
:1008B00000683F49098808433C4908603A498878FC
:1008C000FFF704FD024638494878FFF7FFFC42EA8B
:1008D0000010384908700022002425E002F10A01C6
:1008E000314B585CFFF7F2FC054602F109012E4B33
:1008F000585CFFF7EBFC45EA001502F10C012A4BAE
:10090000585CFFF7E3FC45EA002502F10B01264B9A
:10091000585CFFF7DBFC45EA0030274921F814005A
:10092000601CC4B2101DC2B2224800784000904240
:10093000D4DC2048047804EBD47042101E491B48D4
:100940000068FFF721FD2BE001201C49087027E01B
:10095000FFE71648006880B2144908600020184973
:100960000880002210E002F109010F4B585CFFF7EC
:10097000ADFCC2F103018900884011490988084390
:100980000F490880501CC2B2042AECD30748006803
:100990000B49098840EA01400449086000E000BFB3
:1009A00000BF0648007870BD5600002014000020EB
:1009B00022000020100000205C0100201F00002009
:1009C0002000002010B500F001F810BD0CB500208B
:1009D000019000903348006840F48030314908604D
:1009E00000BF3048006800F4003000900198401CBF
:1009F0000190009818B90198B0F5A06FF1D129487D
:100A0000006800F4003010B10120009001E00020E7
:100A100000900098012843D12348006840F010005E
:100A2000214908600846006820F003000860084675
:100A3000006840F0020008601A48406819494860A0
:100A40000846406848600846406840F48060486056
:100A50000846406820F47C1048600846406840F42E
:100A6000E81048600846006840F08070086000BFE9
:100A70000C48006800F000700028F9D00948406870
:100A800020F00300074948600846406840F0020033
:100A9000486000BF0348406800F00C000828F9D106
:100AA0000CBD0000001002400020024008B54FF0CD
:100AB000E0200069C0B200900548007808B9FFF74F
:100AC0006BFE0448006810B102480068804708BD0A
:100AD000040000200000002010B51348006840F01A
:100AE00001001149086008464068104908400E4955
:100AF0004860084600680E4908400B4908600846EF
:100B0000006820F4802008600846406820F4FE0059
:100B100048604FF41F008860FFF754FF4FF00060FB
:100B20000449086010BD0000001002400000FFF8FA
:100B3000FFFFF6FE08ED00E010B5FFF7FDFD0448ED
:100B400040680449086008460068804710BD0000FE
:100B5000001000081800002010B50948006800F0D7
:100B6000200058B10648006820F0200004490860C1
:100B70000448006810B103480068804710BD0000B9
:100B800000380140080000207047704710B5FFF79B
:100B9000C3FD02210846FFF79BFD0E210220FFF74F
:100BA00097FD04210020FFF793FDFFF74BFB00208A
:100BB00010BD0000D40B000800000020240000003D
:100BC00028010008F80B0008240000209C08000001
:100BD00044010008000000000000000000000000C8
:100BE0000000000000000000000000000000000005
:080BF0000000000000000000FD
:040000050800018965
:00000001FF
